:100000000C943C000C944E000C944E000C944E004A
:100010000C944E000C944E000C944E000C944E0028
:100020000C9447010C944E000C944E000C944E001E
:100030000C944E000C944E000C944E000C944E0008
:100040000C944E000C944E000C944E000C944E00F8
:100050000C944E000C944E000C944E000C944E00E8
:100060000C944E000C944E000C944E000C944E00D8
:100070000C944E000C944E0011241FBECFEFCDBF48
:10008000DFE3DEBF28E3A0E0B8E301C01D92A830A3
:10009000B207E1F70E9461010C9416040C94000071
:1000A0000E94FB010895DC0120E43BE44CE450E0B5
:1000B0000E94DA0328EE33E040E050E00E94BB03E8
:1000C000CA01B9010E94C2020E949102E0E0FAE076
:1000D00066A377A381E08287118280830895F894D4
:1000E000A895482F68ED80E091E00E940E02789478
:1000F0000895F894A89578940895CF93809107383F
:100100008230C9F128F4882349F0813021F1B6C04A
:100110008330D1F1843009F4A8C0B0C08091063892
:10012000811104C081E080930C060DC0813021F460
:1001300082E080930C0607C0823021F483E0809334
:100140000C0601C0000081E080930738109200384F
:10015000109201389AC08091003890910138892B13
:1001600009F493C0E0E0F6E082858160828782E056
:10017000809307388AC00E948A01882309F485C0C9
:1001800083E08093073881C00E948E01C0910638B9
:10019000C1111BC00E94C00220E030E040E250E4E8
:1001A0000E944E0320E030EF4FE755E40E941F020B
:1001B00020E030E040E351E40E944E030E949102AF
:1001C00060930438709305383DC0C130D9F40E9463
:1001D000C00220E030E040E250E40E944E0320E004
:1001E00030EF4FE755E40E941F0220E030E040E38B
:1001F00051E40E944E030E94910260930238709372
:10020000033820C0C230D9F40E94C00220E030E0A0
:1002100040E250E40E944E0320E030EF4FE755E407
:100220000E941F0220E030E040E351E40E944E03B0
:100230000E949102609302387093033807C0000057
:10024000C23020F4CF5FC093063802C01092063847
:1002500084E0809307381092003810920138E0E073
:10026000F6E085818160858310C08091003890918F
:100270000138029750F01092073807C010920738E3
:10028000E0E0F6E0858181608583CF9108951F923B
:100290000F920FB60F9211248F939F938091003885
:1002A000909101380196809300389093013881E055
:1002B00080930B0A9F918F910F900FBE0F901F900C
:1002C00018950E94500081E090E00E94530081E068
:1002D00080930B0A789488E00E946F000E947D0052
:1002E0000E947900FBCFE0E0F6E0118211868EE2F9
:1002F000828313828BE18087178280E18287148258
:1003000081E084878587168E178E148E158E8083E4
:1003100080E008958091050681700895609110062F
:10032000709111068091120690911306089580E055
:10033000089540E068ED88E790E00E940E0240E0FA
:1003400068ED8CE790E00E940E0240E068ED80E7E7
:1003500090E00E940E0243E068ED81E690E00E948A
:100360000E0240E068ED80E690E00E940E0240E060
:1003700068ED82E690E00E940E0280E0089580E041
:100380000895E0E1F4E0808188608193E83184E0C1
:10039000F807C9F7E0E3F4E0808188608193E833EF
:1003A00084E0F807C9F7E0E5F4E080818860819394
:1003B000E83584E0F807C9F70895E1E1F4E08081C9
:1003C000887F846080838081877F8083E2E1F4E09E
:1003D0008081887F846080838081877F8083E3E160
:1003E000F4E08081887F846080838081877F808340
:1003F0000E94730108950E94C1010E9499010E9408
:1004000019020E94DD010E941D020E9414020E9436
:10041000BF010E9412020E9497010895FC0164BF6F
:100420004083089580E0089580E68093090A80E083
:1004300008951092A00080E0089580E008950E9441
:1004400033020C9414030E940D0358F00E9406031B
:1004500040F029F45F3F29F00C94FD0251110C94F7
:1004600048030C9403030E94250368F39923B1F316
:10047000552391F3951B550BBB27AA2762177307CA
:10048000840738F09F5F5F4F220F331F441FAA1F5E
:10049000A9F335D00E2E3AF0E0E832D0915050401A
:1004A000E695001CCAF72BD0FE2F29D0660F771FC8
:1004B000881FBB1F261737074807AB07B0E809F0AE
:1004C000BB0B802DBF01FF2793585F4F3AF09E3F33
:1004D000510578F00C94FD020C9448035F3FE4F35F
:1004E000983ED4F3869577956795B795F7959F5F76
:1004F000C9F7880F911D9695879597F90895E1E0C2
:10050000660F771F881FBB1F621773078407BA0720
:1005100020F0621B730B840BBA0BEE1F88F7E0957B
:1005200008950E942D0388F09F5798F0B92F9927BE
:10053000B751B0F0E1F0660F771F881F991F1AF0CE
:10054000BA95C9F714C0B13091F00E944703B1E0E9
:1005500008950C944703672F782F8827B85F39F0E8
:10056000B93FCCF3869577956795B395D9F73EF467
:1005700090958095709561957F4F8F4F9F4F08950F
:10058000E89409C097FB3EF490958095709561952D
:100590007F4F8F4F9F4F9923A9F0F92F96E9BB27E3
:1005A0009395F695879577956795B795F111F8CF5F
:1005B000FAF4BB0F11F460FF1BC06F5F7F4F8F4FCA
:1005C0009F4F16C0882311F096E911C0772321F0C0
:1005D0009EE8872F762F05C0662371F096E8862F58
:1005E00070E060E02AF09A95660F771F881FDAF7AF
:1005F000880F9695879597F9089597F99F6780E8F2
:1006000070E060E008959FEF80EC089500240A9464
:100610001616170618060906089500240A941216DD
:100620001306140605060895092E0394000C11F410
:10063000882352F0BB0F40F4BF2B11F460FF04C0BD
:100640006F5F7F4F8F4F9F4F089557FD9058440F16
:10065000551F59F05F3F71F04795880F97FB991F21
:1006600061F09F3F79F087950895121613061406DE
:10067000551FF2CF4695F1DF08C01616170618066B
:10068000991FF1CF86957105610508940895E89446
:10069000BB2766277727CB0197F908950E9461034E
:1006A0000C9414030E94060338F00E940D0320F0FE
:1006B000952311F00C94FD020C94030311240C9467
:1006C00048030E94250370F3959FC1F3950F50E0F6
:1006D000551F629FF001729FBB27F00DB11D639FF4
:1006E000AA27F00DB11DAA1F649F6627B00DA11D9A
:1006F000661F829F2227B00DA11D621F739FB00D40
:10070000A11D621F839FA00D611D221F749F3327AF
:10071000A00D611D231F849F600D211D822F762F48
:100720006A2F11249F5750409AF0F1F088234AF025
:10073000EE0FFF1FBB1F661F771F881F9150504091
:10074000A9F79E3F510580F00C94FD020C944803DC
:100750005F3FE4F3983ED4F3869577956795B79518
:10076000F795E7959F5FC1F7FE2B880F911D969532
:10077000879597F90895052E97FB1EF400940E9423
:10078000D20357FD07D00E94E50307FC03D04EF4C7
:100790000C94D20350954095309521953F4F4F4F83
:1007A0005F4F089590958095709561957F4F8F4F1D
:1007B0009F4F08950E940704A59F900DB49F900D30
:1007C000A49F800D911D11240895A1E21A2EAA1B49
:1007D000BB1BFD010DC0AA1FBB1FEE1FFF1FA217F1
:1007E000B307E407F50720F0A21BB30BE40BF50BEE
:1007F000661F771F881F991F1A9469F76095709577
:10080000809590959B01AC01BD01CF010895A29FF9
:10081000B001B39FC001A39F700D811D1124911DD4
:10082000B29F700D811D1124911D0895F894FFCF82
:00000001FF
